:100000000C942A000C9447000C9447000C94470071
:100010000C9447000C9447000C9447000C94470044
:100020000C9447000C9447000C9447000C94470034
:100030000C9447000C94F1000C9447000C9447007A
:100040000C9447000C9447000C9447000C94470014
:100050000C94470011241FBECFE5D8E0DEBFCDBF12
:1000600010E0A0E6B0E0E0E9F3E002C005900D92F8
:10007000A637B107D9F710E0A6E7B0E001C01D929E
:10008000AB3DB107E1F70E9449000C94C6010C9406
:100090000000CF92DF92EF92FF920F931F93DF93B6
:1000A000CF93CDB7DEB72C970FB6F894DEBF0FBE57
:1000B000CDBFCE0108960E94A300CE0101960E94FA
:1000C000DF008E010E5F1F4FC8010E942401CE0188
:1000D00004960E948101C80160E670E00E9441011F
:1000E00078948E010C5F1F4FCC24DD246894C1F8F6
:1000F000CC0EDD1EC801B6010E94AE017C01FC01E0
:1001000080818823B9F38E010E5F1F4FC80166E618
:1001100070E00E944101C801B7010E944101FFCF78
:10012000DC0187E08C9380E390E012969C938E93A1
:100130001197E1E3F0E01496FC93EE93139780811E
:100140008F7780830895DC0187E08C9380E390E0D3
:1001500012969C938E931197E1E3F0E01496FC9332
:10016000EE93139780818F7780830895FC01A1819E
:10017000B2818C91E08190E00E2E02C0959587951A
:100180000A94E2F780FF02C081E0089524EF31E095
:1001900040E951E0CA010197F1F721503040D1F711
:1001A0008C9190E002C095958795EA95E2F7817071
:1001B0000895E7E3F0E08081806880830895E7E3B5
:1001C000F0E08081806880830895E8E3F0E080813A
:1001D000806880830895E8E3F0E080818F778083F2
:1001E00008951F920F920FB60F9211248F939F9331
:1001F000EF93FF938091DA009CB1E6E7F0E0E80F1F
:10020000F11D90838F5F8093DA00FF91EF919F91B2
:100210008F910F900FBE0F901F901895FC0186E7ED
:1002200090E091838083AAE2B0E08C9188618C9306
:10023000E0E4F0E080818668808387E689B91082F7
:100240008C9180688C930895FC0186E790E09183FF
:100250008083AAE2B0E08C9188618C93E0E4F0E0C6
:1002600080818668808387E689B910828C91806856
:100270008C930895EBE2F0E0808185FFFDCF6CB9AF
:100280000895EF92FF921F93CF93DF937C01EB01D0
:100290006881662359F010E0C7010E943A011F5F90
:1002A000FE01E10FF11D60816623B1F7DF91CF916F
:1002B0001F91FF90EF90089508950895FC0180919B
:1002C000DA00843649F41092DA00E6E7F0E0DF0164
:1002D0001D928A95E9F7089520E137E240E951E05F
:1002E000CA010197F1F721503040D1F78081918107
:1002F0000895FC0184E790E0918380831382128249
:100300000895FC0184E790E0918380831382128238
:100310000895DC011296ED91FC911397808188235A
:1003200081F020E03CE2803209F430832F5F1296A6
:100330008D919C911397FC01E20FF11D8081882320
:1003400091F70895FC0184E790E0918380830895FC
:10035000FC0184E790E09183808308950F931F93BD
:100360008C01CB010E945E01D80113969C938E9361
:100370001297ED91FC910190F081E02DC801099553
:10038000F801828193811F910F910895F894FFCF16
:1003900068656C6C6F0072656369657665642000E2
:0603A000000000008901CD
:00000001FF
