:100000000C942B000C9453000C9453000C9453004C
:100010000C9453000C9453000C9453000C94530014
:100020000C9453000C9453000C9453000C94530004
:100030000C9453000C9453000C9453000C945300F4
:100040000C9453000C9453000C9453000C945300E4
:100050000C945300FC0011241FBECFE5D8E0DEBF96
:10006000CDBF10E0A0E6B0E0E2EAF2E002C0059009
:100070000D92A037B107D9F710E0A0E7B0E001C0BA
:100080001D92A437B107E1F710E0C6E5D0E004C047
:100090002297FE010E944B01C435D107C9F70E9487
:1000A00055000C944F010C940000CF92DF92EF9218
:1000B000FF920F931F93DF93CF93CDB7DEB72797B0
:1000C0000FB6F894DEBF0FBECDBFCE0103960E94DF
:1000D000BD00CE01029661E070E00E94ED007C015F
:1000E000CE01019660E070E00E94ED008C010F2EC1
:1000F000F3E0CF2EDD24F02DCC0EDD1EC6010E94D4
:10010000D0008823B1F4D701ED91FC910190F081EA
:10011000E02DC7010995D801ED91FC910190F08186
:10012000E02DC8010995C6010E94D0008823D9F3AB
:10013000E5CFD701ED91FC910280F381E02DC7015D
:100140000995D801ED91FC910280F381E02DC80161
:100150000995D4CFDC0187E08C9380E390E0129680
:100160009C938E931197E1E3F0E01496FC93EE9349
:10017000139780818F7780830895DC0187E08C93CB
:1001800080E390E012969C938E931197E1E3F0E068
:100190001496FC93EE93139780818F778083089554
:1001A000FC01A181B2818C91E08190E00E2E02C011
:1001B000959587950A94E2F780FF02C081E0089543
:1001C00084ED90E30197F1F78C9190E002C0959552
:1001D0008795EA95E2F7817008956115710539F008
:1001E0006130710519F420E730E003C0089522E77B
:1001F00030E0822F932F089580E790E00E94100155
:1002000082E790E00E9432010895FC0184E690E0CC
:1002100091838083E7E3F0E08081806880830895A4
:10022000FC0184E690E091838083E7E3F0E0808145
:10023000806880830895E8E3F0E0808180688083AF
:100240000895E8E3F0E080818F7780830895FC01D2
:100250008CE690E091838083E4E3F0E08081806429
:1002600080830895FC018CE690E091838083E4E331
:10027000F0E08081806480830895E5E3F0E0808190
:10028000806480830895E5E3F0E080818F7B808344
:100290000895EE0FFF1F0590F491E02D0994F89456
:0202A000FFCF8E
:1002A200000000001B012101000000003D0143018C
:00000001FF
