:100000000C942A000C9447000C9447000C94470071
:100010000C9447000C9447000C9447000C94470044
:100020000C9447000C9447000C9447000C94470034
:100030000C9447000C9447000C9447000C94470024
:100040000C9447000C9447000C9447000C94470014
:100050000C94470011241FBECFE5D8E0DEBFCDBF12
:1000600010E0A6E6B0E001C01D92AC36B107E1F7A2
:1000700010E0A0E6B0E0E2E7F5E002C005900D92E6
:10008000A636B107D9F70E9449000C94B7020C9428
:1000900000008F929F92AF92BF92CF92DF92EF9229
:1000A000FF920F931F93DF93CF93CDB7DEB72D97BA
:1000B0000FB6F894DEBF0FBECDBFCE0101960E94F1
:1000C000CC00CE0106960E940D010E949F016C019A
:1000D0007E010894E11CF11C0F2EF8E88F2EF3E14D
:1000E0009F2EF02D09E110E00F2EF6E0AF2EBB247D
:1000F000F02DAC0EBD1EC7010E94DF008823D9F78A
:10010000C6010E947001C6010E948D0182309105D6
:1001100091F0833091051CF40197F1F406C083300F
:10012000910579F00497C1F412C0C50160E070E058
:100130000E941E0111C0C50161E070E00E941E0115
:100140000BC0C50162E070E00E941E0105C0C50140
:1001500063E070E00E941E01C7010E94DF00882357
:10016000D9F39401C8010197F1F721503040D1F73C
:10017000C2CFDC0187E08C9380E390E012969C93E1
:100180008E931197E1E3F0E01496FC93EE931397AE
:1001900080818F7780830895DC0187E08C9380E3F2
:1001A00090E012969C938E931197E1E3F0E0149601
:1001B000FC93EE93139780818F7780830895FC01E1
:1001C000A181B2818C91E08190E00E2E02C09595C4
:1001D00087950A94E2F780FF02C081E0089584EDDC
:1001E00090E30197F1F78C9190E002C09595879587
:1001F000EA95E2F781700895E7E3F0E08081806896
:100200008083EAE3F0E08081806180838081806286
:1002100080838081806480830895E7E3F0E08081BB
:1002200080688083EAE3F0E0808180618083808160
:10023000806280838081806480830895613071054D
:1002400099F0623071051CF4672B41F0089562301B
:10025000710581F063307105C1F412C0E8E3F0E08C
:100260008081806880830895EBE3F0E08081806185
:1002700080830895EBE3F0E08081806280830895BD
:10028000EBE3F0E080818064808308956130710544
:1002900099F0623071051CF4672B41F008956230CB
:1002A000710581F063307105C1F412C0E8E3F0E03C
:1002B00080818F7780830895EBE3F0E080818F7EEB
:1002C00080830895EBE3F0E080818F7D8083089543
:1002D000EBE3F0E080818F7B80830895089508959B
:1002E000FC0180819181059714F011821082808138
:1002F00091810196918380830895FC012081318151
:100300002115310519F421E030E004C0C90101973D
:1003100091838083318320830895FC0180819181C2
:10032000089580916600909167000E945F02089591
:1003300080916600909167000E945F02089580910D
:10034000660090916700892B41F482E090E00E9462
:10035000B20180936600909367008091660090914F
:1003600067000895CF93DF93BC018230910510F4AC
:1003700062E070E0A0916A00B0916B00ED01E0E0F6
:10038000F0E040E050E021C088819981861797070E
:1003900069F48A819B81309719F09383828304C02A
:1003A00090936B0080936A00FE0134C06817790750
:1003B00038F44115510519F08417950708F4AC017C
:1003C000FE018A819B819C01E9012097E9F6411594
:1003D0005105A9F1CA01861B970B049708F4BA01CD
:1003E000E0E0F0E02AC08D919C9111978417950769
:1003F000F9F46417750781F412968D919C91139707
:10040000309719F09383828304C090936B0080939C
:100410006A00FD0132964FC0CA01861B970BFD0191
:10042000E80FF91F6193719302978D939C9343C0DA
:10043000FD01828193819C01D9011097A1F68091E1
:10044000680090916900892B41F48091620090913D
:10045000630090936900809368004091640050911C
:1004600065004115510541F44DB75EB780916000BC
:1004700090916100481B590B2091680030916900F0
:1004800024173507B0F4CA01821B930B8617970710
:1004900080F0AB014E5F5F4F8417950750F0420F1D
:1004A000531F5093690040936800F9016193719361
:1004B00002C0E0E0F0E0CF01DF91CF910895CF934B
:1004C000DF93009709F450C0EC0122971B821A8237
:1004D000A0916A00B0916B00109709F140E050E0E4
:1004E000AC17BD0708F1BB83AA83FE0121913191AE
:1004F000E20FF31FAE17BF0779F48D919C9111970E
:10050000280F391F2E5F3F4F3983288312968D9114
:100510009C9113979B838A834115510571F4D09365
:100520006B00C0936A0020C012968D919C91139726
:10053000AD01009711F0DC01D3CFFA01D383C28360
:1005400021913191E20FF31FCE17DF0769F4888103
:100550009981280F391F2E5F3F4FFA013183208385
:100560008A819B8193838283DF91CF910895F89450
:02057000FFCFBB
:0605720020006C000000F7
:00000001FF
